:020000040800F2
:1000000000000220D12300088508000887080008A6
:10001000890800088B0800088D080008000000000F
:100020000000000000000000000000006121000846
:100030008F08000800000000012200086522000867
:10004000212400082124000821240008212400087C
:10005000212400082124000821240008212400086C
:10006000212400082124000821240008212400085C
:10007000212400082124000821240008212400084C
:10008000212400082124000821240008212400083C
:10009000212400082124000821240008212400082C
:1000A000212400082124000821240008212400081C
:1000B000212400082124000821240008212400080C
:1000C00021240008212400082124000821240008FC
:1000D00021240008212400082124000821240008EC
:1000E00021240008212400082124000821240008DC
:1000F00021240008212400082124000821240008CC
:1001000021240008212400082124000821240008BB
:100110002124000821240008910800082124000857
:10012000212400082124000821240008212400089B
:10013000212400082124000821240008212400088B
:10014000212400082124000821240008212400087B
:10015000212400082124000821240008212400086B
:10016000212400082124000821240008212400085B
:100170002124000821240008212400080000000098
:080180002124000821240008DD
:100190000348044B834202D0034B03B11847704716
:1001A0001000002010000020000000000548064B51
:1001B0001B1AD90F01EBA301491002D0034B03B165
:1001C00018477047100000201000002000000000B9
:1001D00010B5064C237843B9FFF7DAFF044B13B18F
:1001E0000448AFF300800123237010BD10000020ED
:1001F000000000002424000808B5044B1BB104498A
:100200000448AFF30080BDE80840CFE700000000DD
:10021000140000202424000870B50F4B0F4DAB4292
:10022000A3EB050607D0B610002455F8043B0134B3
:100230009847A642F9D802F0F5F8094D094B5E1B24
:10024000AB424FEAA60606D0002455F8043B013421
:100250009847A642F9D870BD782400087824000891
:10026000782400087C240008830730B547D0541E4A
:10027000002A3ED0CAB2034601E0013C39D303F85C
:10028000012B9D07F9D1032C2CD9CDB205EB052507
:100290000F2C05EB054535D9A4F1100222F00F0C07
:1002A00003F1100EE6444FEA121C1A46C2E900554B
:1002B000C2E9025510327245F8D10CF1010214F076
:1002C0000C0F03EB021204F00F0C13D0ACF104037B
:1002D00023F003030433134442F8045B9342FBD13D
:1002E0000CF003042CB1C9B21C4403F8011BA34257
:1002F000FBD130BD64461346002CF4D1F9E7034628
:100300001446C0E71A46A446E0E700BF53B94AB90D
:10031000002908BF00281CBF4FF0FF314FF0FF300D
:1003200000F06AB9ADF1080C6DE904CE00F006F8F2
:10033000DDF804E0DDE9022304B070472DE9F04761
:10034000089D0E4604460F46002B4AD194468C4524
:10035000B2FA82F260D942B1C2F12003974020FA8A
:1003600003F30CFA02FC1F4394404FEA1C4E1FFAA1
:100370008CF6B7FBFEF1230C0EFB117743EA074323
:1003800001FB06F098420AD91CEB030301F1FF3789
:1003900080F01581984240F21281023963441B1AA1
:1003A000A4B2B3FBFEF00EFB103344EA034400FB9F
:1003B00006F6A6420AD91CEB040400F1FF3380F0D4
:1003C0000081A64240F2FD806444023840EA0140C8
:1003D000A41B00211DB1D4400023C5E90043BDE8A2
:1003E000F0878B4205D90DB1C5E90001002108460F
:1003F000F5E7B3FA83F1002946D1B34202D3824232
:1004000000F2F580841A66EB030201201746002DE6
:10041000E5D0C5E90047E2E7002A40F09380A1EB70
:100420000C034FEA1C471FFA8CFE0121B3FBF7F6C1
:1004300007FB1630230C43EA00430EFB06F09842FC
:1004400008D91CEB030306F1FF3802D2984200F2F0
:10045000D08046461B1AA4B2B3FBF7F007FB10335B
:1004600044EA03440EFB00FEA64508D91CEB040435
:1004700000F1FF3302D2A64500F2B6801846A4EB85
:100480000E0440EA0640A5E7C1F120078B4022FA9E
:1004900007FC4CEA030C06FA01FE20FA07F426FAE0
:1004A00007F344EA0E0400FA01F84FEA1C404FEA51
:1004B0001449B3FBF0FE1FFA8CF600FB1E3349EA29
:1004C00003430EFB06F9994502FA01F20BD91CEB26
:1004D00003030EF1FF3A80F08580994540F2828057
:1004E000AEF1020E6344A3EB0909A4B2B9FBF0F329
:1004F00000FB139944EA094403FB06F6A64208D917
:100500001CEB040403F1FF3068D2A64266D9023B1B
:10051000644443EA0E40A41BA0FB02E6B4427346C7
:10052000B14652D34FD05DB1B8EB030264EB09047E
:1005300004FA07F722FA01F31F43CC40C5E900741F
:1005400000214CE7C2F1200120FA01F30CFA02FC71
:1005500026FA01F1964033434FEA1C471FFA8CFEFE
:10056000B1FBF7F007FB1016190C41EA064100FB3E
:100570000EF68E4204FA02F408D91CEB010100F1D8
:10058000FF382DD28E422BD902386144891B9BB291
:10059000B1FBF7F607FB161143EA014306FB0EF128
:1005A000994208D91CEB030306F1FF3814D2994293
:1005B00012D9023E63445B1A46EA004136E73946E7
:1005C000EDE6184602E7F045ADD2BEEB020366EB5E
:1005D0000C060138B146A6E74646ECE7034698E725
:1005E0004046D3E7D6467EE76444023847E70846EC
:1005F0000DE7023E63442DE7704700BF70B588B039
:100600000024039404940594069407940194174BD2
:100610001A6B42F001021A631A6B02F00102019296
:10062000019A02941A6B42F008021A631B6B03F0E2
:1006300008030293029B0E4D22464FF47041284658
:1006400000F063FF012603960494059403A909486A
:1006500000F05EFE4FF470430393049605940694F5
:1006600003A9284600F054FE08B070BD00380240CF
:10067000000C02400000024008B5012001F0F0FB30
:10068000FBE7000008B508E001224FF470411F4865
:1006900000F03BFF012001F071FB1D4B1B68042B98
:1006A000F8D801A252F823F089060008BD06000818
:1006B000D1060008E5060008F90600084FF470416D
:1006C000124800F028FF4FF47A7001F057FBE1E781
:1006D0004FF470410D4800F01EFF40F2EE2001F093
:1006E0004DFBD7E74FF47041084800F014FF4FF47A
:1006F000FA7001F043FBCDE74FF47041034800F07E
:100700000AFFFA2001F03AFBC4E700BF000C0240E8
:100710002C00002008B502E0012001F0A1FB01211E
:100720000A4800F0EBFE0028F6D10121074800F04E
:10073000E5FE0028F9D0064A136801331360052B43
:10074000EAD1134600221A60E6E700BF000002402B
:100750002C00002008B50268034B9A4200D008BD67
:1007600000F064FFFBE700BF0010004072B6FEE738
:1007700000B595B03022002108A8FFF775FD0023D1
:10078000039304930593069307930193184A116CFE
:1007900041F080511164126C02F080520192019A72
:1007A0000293144A116841F480411160126802F406
:1007B00080420292029A0222089201220B92102297
:1007C0000C920E9308A800F06FFA68B90F230393F8
:1007D0000021049105910691079103A800F0B4FC53
:1007E00020B915B05DF804FBFFF7C0FFFFF7BEFFAF
:1007F000003802400070004000B583B000F0FCFEFD
:10080000FFF7B6FFFFF7FAFE0F4B019300240094A9
:1008100080231A460D490E4801F033F90D4B019320
:10082000009480231A460C490C4801F02AF90C4B1D
:100830000193009480231A460A490B4801F021F9DC
:1008400001F052F9FEE700BF380000203C24000808
:1008500079060008340000204424000885060008BA
:10086000300000204824000815070008034B0360EF
:10087000034B0B6080231360704700BF3C020020D5
:100880003C000020FEE7FEE7FEE7FEE7FEE77047DC
:1008900008B5024800F0C2F808BD00BF9002002071
:1008A00000B583B0002200920D4B596C41F4804199
:1008B0005964596C01F48041009100990192196CBE
:1008C00041F0805119641B6C03F080530193019B2C
:1008D0000F216FF0010000F07BFE03B05DF804FB18
:1008E0000038024030B589B0044600230193214B03
:1008F0001A6C42F010021A641B6C03F0100301938F
:10090000019B02A903A800F0E5FC069BCBB900F00F
:10091000D1FC0346184AA2FB03239B0C013B17485A
:10092000174A026040F2E732C2604360002303616D
:100930008360836100F08AF9054630B1284609B02A
:1009400030BD00F0B7FC4300E4E70C4800F01EF8AF
:1009500005460028F2D1362000F04AFE0F2C01D9BE
:100960000125EBE700222146362000F031FE054B41
:100970001C60E3E70038024083DE1B439002002046
:1009800000100040040000207047000090F83D3047
:10099000DBB2012B37D1022380F83D300268D368E7
:1009A00043F00103D3600368194A934220D0B3F1A6
:1009B000804F1DD0A2F57C42934219D002F580628F
:1009C000934215D002F58062934211D002F578422D
:1009D00093420DD002F57052934209D0A2F59432A1
:1009E000934205D01A6842F001021A600020704755
:1009F0009A6802F00702062A07D01A6842F001023C
:100A00001A6000207047012070470020704700BF27
:100A100000000140704770477047704770B504464A
:100A20000368DE681D6915F0020F10D016F0020F82
:100A30000DD06FF002021A610123037703689B69EE
:100A400013F0030F5ED0FFF7E6FF0023237715F0C6
:100A5000040F12D016F0040F0FD023686FF00402B9
:100A60001A610223237723689B6913F4407F4FD0D8
:100A70002046FFF7D0FF0023237715F0080F12D090
:100A800016F0080F0FD023686FF008021A610423D4
:100A900023772368DB6913F0030F40D02046FFF76C
:100AA000BAFF0023237715F0100F12D016F0100FA5
:100AB0000FD023686FF010021A6108232377236890
:100AC000DB6913F4407F31D02046FFF7A4FF0023F9
:100AD000237715F0010F02D016F0010F2DD115F07C
:100AE000800F02D016F0800F2FD115F0400F02D0EA
:100AF00016F0400F31D115F0200F02D016F0200F64
:100B000033D170BDFFF786FF2046FFF785FF9CE7D6
:100B10002046FFF77FFF2046FFF77EFFABE720462A
:100B2000FFF778FF2046FFF777FFBAE72046FFF789
:100B300071FF2046FFF770FFC9E723686FF00102DD
:100B40001A612046FFF706FEC9E723686FF08002AE
:100B50001A61204600F0A7F8C7E723686FF040024B
:100B60001A612046FFF759FFC5E723686FF020029E
:100B70001A61204600F096F8C3E700000368324A85
:100B8000904212D0B0F1804F0FD0A2F57C4290423B
:100B90000BD002F58062904207D002F5806290424D
:100BA00003D002F57842904203D123F070034A68E3
:100BB0001343254A90422AD0B0F1804F27D0A2F5A6
:100BC0007C42904223D002F5806290421FD002F511
:100BD000806290421BD002F57842904217D002F515
:100BE0007052904213D002F5806290420FD002F50D
:100BF000806290420BD0A2F59832904207D002F565
:100C00008062904203D002F58062904203D123F4C7
:100C10004073CA68134323F080034A6913438A6808
:100C2000C2620A688262084A904203D002F580627A
:100C3000904201D10A690263026842F00402026034
:100C400001224261036070470000014040B310B5CB
:100C5000044690F83D30F3B1022384F83D3021463C
:100C600051F8040BFFF78AFF012384F8463084F81B
:100C70003E3084F83F3084F8403084F8413084F8C6
:100C8000423084F8433084F8443084F8453084F8A6
:100C90003D30002010BD80F83C30FFF775FEDBE7EB
:100CA0000120704770477047002800F0E08170B560
:100CB00082B00446036813F0010F3BD09F4B9B6842
:100CC00003F00C03042B2CD09C4B9B6803F00C030B
:100CD000082B21D06368B3F5803F4FD0B3F5A02F28
:100CE00052D0964B1A6822F480321A601A6822F4A5
:100CF00080221A606368002B50D000F0A3FC0546E8
:100D00008E4B1B6813F4003F14D100F09BFC401B7A
:100D10006428F5D90320B1E1884B5B6813F4800F98
:100D2000D8D0864B1B6813F4003F03D06368002BB8
:100D300000F09F81236813F0020F54D07F4B9B6813
:100D400013F00C0F3ED07D4B9B6803F00C03082B77
:100D500033D0E368002B68D0794B01221A6000F091
:100D600071FC0546754B1B6813F0020F54D100F05F
:100D700069FC401B0228F5D903207FE16F4A136804
:100D800043F480331360B5E76C4B1A6842F4802259
:100D90001A601A6842F480321A60ABE700F052FC25
:100DA0000546664B1B6813F4003FC3D000F04AFCB5
:100DB000401B6428F5D9032060E1604B5B6813F4A5
:100DC000800FC6D15D4B1B6813F0020F03D0E368A0
:100DD000012B40F05081594A136823F0F803216930
:100DE00043EAC1031360236813F0080F42D063691C
:100DF0006BB3534B0122C3F8802E00F023FC054651
:100E00004E4B5B6F13F0020F34D100F01BFC401B04
:100E10000228F5D9032031E1484A136823F0F8038A
:100E2000216943EAC1031360DDE7454B00221A60E4
:100E300000F008FC0546414B1B6813F0020FD2D0AE
:100E400000F000FC401B0228F5D9032016E13C4BC2
:100E50000022C3F8802E00F0F5FB0546374B5B6F90
:100E600013F0020F06D000F0EDFB401B0228F5D96D
:100E7000032003E1236813F0040F77D02F4B1B6C82
:100E800013F0805F33D1002301932C4B1A6C42F096
:100E900080521A641B6C03F080530193019B01255F
:100EA000284B1B6813F4807F23D0A368012B34D018
:100EB000052B38D0214B1A6F22F001021A671A6FE6
:100EC00022F004021A67A368002B3DD000F0BAFBA1
:100ED00006461A4B1B6F13F0020F46D100F0B2FB0F
:100EE000801B41F288339842F3D90320C6E00025E5
:100EF000D6E7144A136843F48073136000F0A2FB32
:100F00000646104B1B6813F4807FCED100F09AFB8D
:100F1000801B0228F5D90320B0E0084A136F43F084
:100F200001031367CFE7054B1A6F42F004021A67FB
:100F30001A6F42F001021A67C5E700BF003802408D
:100F4000000047420070004000F07CFB0646524B18
:100F50001B6F13F0020F08D000F074FB801B41F2EE
:100F600088339842F3D9032088E0EDB9A369002BB8
:100F700000F08380484A926802F00C02082A51D09F
:100F8000022B17D0454B00221A6600F05BFB04468B
:100F9000414B1B6813F0007F42D000F053FB001B55
:100FA0000228F5D9032069E03B4A136C23F08053F3
:100FB0001364DBE7394B00221A6600F043FB054659
:100FC000354B1B6813F0007F06D000F03BFB401B45
:100FD0000228F5D9032051E0E369226A1343626ACB
:100FE00043EA8213A26A5208013A43EA0243E26AE0
:100FF00043EA0263284A5360284B01221A6600F034
:1010000021FB0446244B1B6813F0007F06D100F03F
:1010100019FB001B0228F5D903202FE000202DE04A
:1010200000202BE0012B2BD01B4B5B6803F48001CD
:10103000E269914226D103F03F02216A8A4223D11C
:10104000616A47F6C0721A40B2EB811F1ED103F4E9
:101050004031A26A5208013AB1EB024F18D103F0B5
:101060007063E26AB3EB026F14D1002006E0012046
:101070007047012002E0012000E0002002B070BDB6
:101080000120FBE70120F9E70120F7E70120F5E760
:101090000120F3E70120F1E7003802400000474259
:1010A00008B5264B9B6803F00C03042B41D0082B9A
:1010B00041D1224B5A6802F03F025B6813F4800F63
:1010C00012D01E4B5968C1F388111D480023A1FBA3
:1010D0000001FFF71BF9194B5B68C3F301430133B0
:1010E0005B00B0FBF3F008BD144B5868C0F38810E8
:1010F0004FEA401CBCEB000C6EEB0E0E4FEA8E1359
:1011000043EA9C634FEA8C11B1EB0C0163EB0E03D5
:10111000DB0043EA5173C90011EB000C43F10003FB
:10112000990200234FEA8C2041EA9C51FFF7EEF828
:10113000D1E70348D7E70348D5E700BF00380240AE
:1011400040787D010024F400002800F09B8070B5F9
:101150000D4604464F4B1B6803F007038B4208D231
:10116000CBB24C4A1370136803F007038B4240F074
:101170008B80236813F0020F17D013F0040F04D0F4
:10118000454A936843F4E0539360236813F0080FD3
:1011900004D0414A936843F4604393603E4A9368A5
:1011A00023F0F003A1680B439360236813F0010F51
:1011B00032D06368012B21D09A1E012A25D9364AE4
:1011C000126812F0020F61D033498A6822F00302DC
:1011D00013438B6000F036FA06462F4B9B6803F0F2
:1011E0000C036268B3EB820F16D000F02BFA801B61
:1011F00041F288339842F0D9032042E0264A12682F
:1012000012F4003FE0D101203BE0234A126812F0C3
:10121000007FD9D1012034E01E4B1B6803F0070387
:10122000AB4207D9EAB21B4B1A701B6803F00703E5
:10123000AB422DD1236813F0040F06D0164A9368F1
:1012400023F4E053E1680B439360236813F0080F25
:1012500007D0114A936823F46043216943EAC1032C
:101260009360FFF71DFF0C4B9B68C3F303130B4AFE
:10127000D35CD8400A4B18600A4B1868FFF732FB62
:10128000002070BD012070470120FAE70120F8E737
:101290000120F6E7003C02400038024060240008CC
:1012A0000800002004000020014B1868704700BFB0
:1012B0000800002008B5FFF7F7FF044B9B68C3F355
:1012C0008223034AD35CD84008BD00BF00380240E7
:1012D000582400080F2303600B4B9A6802F00302A6
:1012E00042609A6802F0F00282609A6802F4E0526A
:1012F000C2609B68DB0803F4E0530361034B1B6887
:1013000003F007030B60704700380240003C0240C6
:1013100000230F2B00F2E98070B582B065E085688C
:101320004FEA430E032404FA0EF425EA0405CC68C0
:1013300004FA0EF42C438460446824EA02044A68E8
:10134000C2F300129A40224342605CE0DC08083499
:1013500050F8242003F00705AD004FF00F0E0EFAF1
:1013600005FE22EA0E0E0A69AA4042EA0E0240F881
:1013700024205CE0072200E0002202FA0EF22A4359
:1013800002345A4D45F82420594A94686FEA0C02F9
:1013900024EA0C054E6816F4801F01D04CEA0405BF
:1013A000534CA560E46802EA04054E6816F4001F79
:1013B00001D04CEA04054E4CE560646802EA04057D
:1013C0004E6816F4003F01D04CEA0405484C6560B5
:1013D000246822404D6815F4803F01D04CEA040295
:1013E000434C226001330F2B7DD801229A400C68B8
:1013F00004EA020C32EA0404F4D14C6804F0030459
:10140000013C012C8BD94A6802F00302032A09D05F
:10141000C4685D000322AA4024EA02048A68AA4044
:101420002243C2604A6802F00302022A8ED0046896
:101430004FEA430E032202FA0EF224EA02044A683B
:1014400002F0030202FA0EF2224302604A6812F42A
:10145000403FC7D000220192264A546C44F4804495
:101460005464526C02F480420192019A9C08A51CBB
:101470001E4A52F8255003F0030E4FEA8E0E0F223B
:1014800002FA0EF225EA02051B4A90423FF474AFBD
:1014900002F5806290421AD002F58062904218D024
:1014A00002F58062904216D002F58062904214D01C
:1014B00002F58062904212D002F58062904210D014
:1014C00002F5806290423FF455AF082255E70122B1
:1014D00053E7022251E703224FE704224DE705229A
:1014E0004BE7062249E702B070BD70470038014063
:1014F000003C0140003802400000024003691942EC
:1015000001D001207047002070470AB18161704707
:10151000090481617047436901EA030221EA03017A
:1015200041EA024181617047002807DB00F01F0299
:10153000400901239340024A42F82030704700BF1F
:1015400000E100E0002808DB0901C9B200F16040B9
:1015500000F5614080F80013704700F00F000901AA
:10156000C9B2014B1954704714ED00E000B500F00A
:101570000700C0F1070CBCF1040F28BF4FF0040CAA
:10158000031D062B0FD9C31E4FF0FF3E0EFA0CF0C1
:1015900021EA000199400EFA03FE22EA0E0241EA16
:1015A00002005DF804FB0023EEE70000074AD36861
:1015B00023F4E0631B041B0C000200F4E06003430F
:1015C00043F0BF6343F40033D360704700ED00E0A5
:1015D00010B50446054BD868C0F30220FFF7C6FFDC
:1015E00001462046FFF7AEFF10BD00BF00ED00E052
:1015F00008B5FFF799FF08BD08B50B4B1A6842F410
:1016000000721A601A6842F480621A601A6842F422
:1016100080721A600320FFF7C9FF0F20FFF762F9FD
:10162000FFF73EF9002008BD003C0240034A116864
:10163000034B1B780B441360704700BFD802002097
:1016400000000020014B1868704700BFD80200203E
:10165000034AD2F8883043F47003C2F888307047E8
:1016600000ED00E000F1080343604FF0FF328260BC
:10167000C360036100230360704700230361704768
:1016800043684B609A688A6051609960086103689A
:1016900001330360704730B40D68B5F1FF3F11D0DE
:1016A00000F108031C465B681A68AA42FAD963680D
:1016B0004B6099608C60616008610368013303606E
:1016C00030BC70470469F2E70369416882688A6048
:1016D000416851605A68824206D0002202611A684D
:1016E000013A1A601868704782685A60F5E700008E
:1016F000084B1B681B6823B9074B4FF0FF321A6079
:101700007047044B1B68DB68DB685A68024B1A6041
:10171000704700BF4C030020E40200202DE9F04791
:1017200007469846089DDDF824900A9C266B02F136
:101730008042013A06EB820626F00706C1B308464E
:101740004FF0000CBCF10F0F09D810F80C2004EB7F
:101750000C0383F8342012B10CF1010CF2E70023E2
:1017600084F84330062D00D90625E56265644FF004
:10177000000AC4F848A0201DFFF77FFF04F11800FD
:10178000FFF77BFF2461C5F10705A5616462C4F81A
:101790004CA084F850A042463946304600F0CAFCBE
:1017A0002060B9F1000F01D0C9F80040BDE8F08712
:1017B000002384F83430D5E738B5002407E004EB83
:1017C000840293000E481844FFF74CFF0134062CA6
:1017D000F5D90C4D2846FFF745FF0B4C2046FFF787
:1017E00041FF0A48FFF73EFF0948FFF73BFF094862
:1017F000FFF738FF084B1D60084B1C6038BD00BF69
:1018000078030020640300205003002034030020EC
:1018100020030020080300204C0300204803002080
:1018200010B5044600F0AEFC214A13680133136082
:10183000204B1B685BB1204B1B686BB91D4B1B68B1
:10184000DA6AE36A9A4207D81A4B1C6004E0194B23
:101850001C601368012B28D0184A136801331360E9
:10186000E06A01238340164A11680B43136000EBC2
:101870008000211D134B03EB8000FFF701FF00F0F8
:10188000A3FC0D4B1B687BB10A4B1B68DA6AE36A49
:101890009A4209D24FF0E0234FF08052C3F8042D52
:1018A000BFF34F8FBFF36F8F10BDFFF785FFD3E7F7
:1018B0000403002004040020F8020020E8020020B5
:1018C000FC0200207803002010B5044690F8513047
:1018D00063B1012B11D0022B0ED04FF0500383F3D4
:1018E0001188BFF36F8FBFF34F8FFEE7006B00F0DF
:1018F000A5FB204600F0A2FB10BD00F09FFBFBE71C
:101900000F4B1B68D3B110B500F03CFC0D4BDB68EE
:10191000DC68201DFFF7D8FE0B4A1368013B1360FB
:10192000074A1368013B136000F04EFC2046FFF7A6
:10193000CBFF034B1B68002BE6D110BD704700BFE7
:101940001C030020200300200403002008B5FFF73B
:10195000D7FF074B1B68012BF9D94FF0E0234FF05D
:101960008052C3F8042DBFF34F8FBFF36F8FEEE7A4
:101970007803002070B504460D461D4B1E681D4BB4
:1019800018680430FFF7A0FE48B91A4B1B68DB6AE1
:1019900001229A4018490B6823EA02030B60B4F154
:1019A000FF3F0DD03444134B1B685C60A64210D936
:1019B000124B18680F4B19680431FFF76CFE70BDAD
:1019C000002DEFD00B4B196804310D48FFF758FE7E
:1019D000F5E70C4B1868074B19680431FFF75BFEFD
:1019E000094B1B68A342EAD9074B1C60E7E700BF1D
:1019F0000003002004040020FC0200204803002013
:101A0000080300204C030020E402002030B587B01A
:101A10000B9C7CB10C9DB5B154250495049D542DAF
:101A20001AD04FF0500383F31188BFF36F8FBFF3C9
:101A30004F8FFEE74FF0500383F31188BFF36F8F92
:101A4000BFF34F8FFEE74FF0500383F31188BFF3CE
:101A50006F8FBFF34F8FFEE7049D0C9D2C63022414
:101A600085F8514000240394029505AC01940A9C2A
:101A70000094FFF753FE0C98FFF7D2FE059807B0CD
:101A800030BD2DE9F04385B00746884614461E4612
:101A9000900000F051FA08B38146542000F04CFA4F
:101AA0000546A8B1C0F83090002380F85130039368
:101AB00002900D9B01930C9B0093334622464146B6
:101AC0003846FFF72BFE2846FFF7AAFE012007E065
:101AD000484600F0B3FA4FF0FF3001E04FF0FF301E
:101AE00005B0BDE8F083000010B588B0002405946F
:101AF000069407AA06A905A8FEF7B8FE059B02935F
:101B0000069B019300942346079A0E490E48FFF75F
:101B10007DFF0E4B186090B14FF0500383F3118896
:101B2000BFF36F8FBFF34F8F094B4FF0FF321A6037
:101B3000084B01221A60084B1C6000F0BDFB08B086
:101B400010BD00BF502400084D190008E00200201D
:101B5000E4020020F802002000030020024A13687B
:101B600001331360704700BFDC020020F8B53A4B28
:101B70001B68002B69D1394B1D6801351D60C5B943
:101B8000374B1B681B6843B14FF0500383F3118838
:101B9000BFF36F8FBFF34F8FFEE7314A1168314BB0
:101BA000186810601960304A136801331360FFF73A
:101BB0009FFD2E4B1B68AB423DD900272C4B1B6869
:101BC000DB6A03EB83039A002A4B9B58012B00D955
:101BD0000127294B1B68002B3CD001273AE0012745
:101BE0001F4B1B681B6843B31D4B1B68DB68DC681D
:101BF00063689D4226D3261D3046FFF765FDA36A24
:101C00001BB104F11800FFF75FFDE36A01229A405F
:101C10001A49086802430A6003EB83039A003146BD
:101C200014481044FFF72CFDE26A114B1B68DB6A75
:101C30009A42D4D2D4E70027D2E70C4B4FF0FF32C0
:101C40001A60BBE7094A1360B8E70D4A136801330D
:101C5000136000273846F8BDDC0200200003002096
:101C60004C03002048030020EC020020E402002086
:101C70000404002078030020F0020020FC02002071
:101C8000F402002038B5354B1B6843B94FF05003C0
:101C900083F31188BFF36F8FBFF34F8FFEE700F020
:101CA00071FA2E4B1A68013A1A601B68002B4FD14B
:101CB0002B4B1B680BB900244BE00024294B1B68FD
:101CC0001BB3284BDB68DC6804F11800FFF7FCFC51
:101CD000251D2846FFF7F8FCE06A01238340224ACD
:101CE00011680B43136000EB800029461F4B03EB88
:101CF0008000FFF7C5FCE26A1D4B1B68DB6A9A4255
:101D0000DCD31C4B01221A60D8E70CB1FFF7F0FCC2
:101D1000194B1C6884B9174B1C68D4B14FF0E023F1
:101D20004FF08052C3F8042DBFF34F8FBFF36F8F76
:101D300001240EE0013C07D0FFF718FF0028F9D07E
:101D40000C4B01221A60F5E70B4B00221A60E2E708
:101D5000002400F039FA204638BD00BFDC02002024
:101D60000403002034030020FC020020780300203C
:101D700004040020F0020020F402002010B5A8B1F5
:101D80000446104B1B6843B14FF0500383F3118896
:101D9000BFF36F8FBFF34F8FFEE7FFF7DFFE00212A
:101DA0002046FFF7E7FDFFF76DFF48B94FF0E0234E
:101DB0004FF08052C3F8042DBFF34F8FBFF36F8FE6
:101DC00010BD00BFDC020020204B1B681BB1204B64
:101DD00001221A6070471E4B00221A601D4B1B68BF
:101DE000B3FA83F3DBB2C3F11F0303EB83018A0071
:101DF00019498A5842B94FF0500383F31188BFF351
:101E00006F8FBFF34F8FFEE7134803EB83018A0008
:101E1000024451684968516003EB830C4FEA8C021D
:101E200008320244914209D003EB83039A000A4B23
:101E300013445B68DA68094B1A6070474868624669
:101E40009100054A0A445060EEE700BFDC02002022
:101E5000F0020020FC02002078030020040400208F
:101E600008B500B90120FFF789FF002008BD000078
:101E7000124A12F0070F1ED0D11D21F00701C1F543
:101E8000705313440A460E48026000214160134417
:101E9000083B23F007030B48036059601960991A47
:101EA00051601360084B1960084B1960084B4FF0E4
:101EB00000421A6070474FF47053E4E72804002092
:101EC000200400201C04002014040020180400201A
:101ED00008040020164B1A461B688342FBD3516846
:101EE00002EB010C844509D0416800EB010C63450D
:101EF00009D00360904219D01060704740680144D7
:101F000051601046F0E710B40A4C2468A3420BD08D
:101F10005B681944416013681B680360904200D0FD
:101F200010605DF8044B70470460F7E7704700BF2E
:101F3000200400201C04002038B50446FFF70EFEE4
:101F4000384B1B68B3B1384B1B681C4250D1002C76
:101F500050D004F1080214F0070F02D022F007025B
:101F60000832002A55D0314B1B68934253D3304975
:101F70000C6804E0FFF77CFFE5E721461C46636838
:101F8000934202D22368002BF7D1264B1B68A34251
:101F900043D00D68083523680B6063689B1A102BCB
:101FA00010D9A01810F0070F08D04FF0500383F39A
:101FB0001188BFF36F8FBFF34F8FFEE743606260FE
:101FC000FFF788FF626819490B689B1A0B60194973
:101FD00009688B4201D217490B60134B1B681343EE
:101FE000636000232360144A13680133136002E026
:101FF000002500E00025FFF745FE15F0070F0ED085
:102000004FF0500383F31188BFF36F8FBFF34F8FEF
:10201000FEE70025EFE70025EDE70025EBE7284682
:1020200038BD00BF1C040020080400201804002054
:10203000200400201404002010040020002834D0C4
:1020400038B50446A0F1080550F8043C174A126858
:10205000134208D14FF0500383F31188BFF36F8F01
:10206000BFF34F8FFEE750F8081C41B14FF050030B
:1020700083F31188BFF36F8FBFF34F8FFEE723EA1F
:10208000020340F8043CFFF769FD54F8041C084AB9
:1020900013680B4413602846FFF71CFF054A1368BA
:1020A00001331360FFF7EEFD38BD704708040020D0
:1020B000180400200C04002082B0002301930D4B73
:1020C0001B68B3F1FF3F08D04FF0500383F3118832
:1020D000BFF36F8FBFF34F8FFEE74FF0500383F3D3
:1020E0001188BFF36F8FBFF34F8F019B002BFCD084
:1020F00002B070470C00002008480068006880F3B8
:1021000008884FF0000080F3148862B661B6BFF310
:102110004F8FBFF36F8F00DF00BF000008ED00E0BE
:10212000DFF80C00016841F47001016070470000A5
:1021300088ED00E04FF0807340F8043C21F001018D
:1021400040F8081C054B40F80C3C40F8202C6FF080
:10215000020340F8243C4438704700BFB92000080F
:10216000074B19680868B0E8F04F80F30988BFF39F
:102170006F8F4FF0000080F311887047AFF300803D
:10218000040400204FF0500383F31188BFF36F8FD6
:10219000BFF34F8F0B4A136801331360012B00D03C
:1021A00070474FF0E023D3F8043D13F0FF0FF7D052
:1021B0004FF0500383F31188BFF36F8FBFF34F8F3E
:1021C000FEE700BF0C000020094B1B6843B94FF02D
:1021D000500383F31188BFF36F8FBFF34F8FFEE778
:1021E000013B034A13600BB983F31188704700BFAA
:1021F0000C000020000000000000000000000000B3
:10220000EFF30980BFF36F8F154B1A681EF0100FA4
:1022100008BF20ED108A20E9F04F10602DE9090079
:102220004FF0500080F31188BFF34F8FBFF36F8FD3
:10223000FFF7CAFD4FF0000080F3118809BC196850
:102240000868B0E8F04F1EF0100F08BFB0EC108A1D
:1022500080F30988BFF36F8F704700BFAFF3008032
:102260000404002008B54FF0500383F31188BFF336
:102270006F8FBFF34F8FFFF779FC28B14FF0E0234A
:102280004FF08052C3F8042D002383F3118808BD5A
:102290004FF0E022002313619361054B1B68054951
:1022A000A1FB03139B09013B536107231361704793
:1022B00008000020D34D62104FF0E023D3F8002D2A
:1022C0003D4B9A421CD04FF0E023D3F8002D3B4BFE
:1022D0009A421ED030B583B0394B1A78D2B20192EF
:1022E000FF221A701B78DBB28DF803309DF80330A3
:1022F00003F05003334A1370334B07221A601BE07C
:102300004FF0500383F31188BFF36F8FBFF34F8FEC
:10231000FEE74FF0500383F31188BFF36F8FBFF3D5
:102320004F8FFEE7284A1368013B13609DF8033086
:102330005B00DBB28DF803309DF8033013F0800FA3
:10234000F0D1214B1B68032B08D04FF0500383F3CF
:102350001188BFF36F8FBFF34F8FFEE71B021A4A3E
:10236000136003F4E0631360019BDBB2144A137043
:102370004FF0E024D4F8203D43F47003C4F8203D2E
:10238000D4F8203D43F07043C4F8203DFFF780FFB0
:1023900000250E4B1D60FFF7C3FED4F8343F43F019
:1023A0004043C4F8343FFFF7A7FEFFF70DFDFFF7EA
:1023B00083FE284603B030BD71C20F4170C20F4189
:1023C00000E400E02C400020284000200C00002009
:1023D000DFF834D0FFF73CF90C480D490D4A0023D3
:1023E00002E0D458C4500433C4188C42F9D30A4ACA
:1023F0000A4C002301E013600432A242FBD3FDF734
:102400000BFFFEF7F9F970470000022000000020E2
:102410001000002080240008100000203040002020
:10242000FEE70000F8B500BFF8BC08BC9E46704748
:0C243000F8B500BFF8BC08BC9E46704721
:10243C0064656661756C74006C65640062757474B7
:10244C006F6E000049444C45000000000000000085
:10245C00010203040000000000000000010203045C
:04246C00060708094E
:08247000CCDEFF7F010000003B
:04247800F90100085E
:04247C00D101000882
:1024800001000000100000000024F400AAAAAAAA7B
:04000005080023D1FB
:00000001FF
