:020000040800F2
:100000000000022011270008350800083708000802
:10001000390800083B0800083D08000800000000FF
:100020000000000000000000000000008121000826
:100030003F08000800000000212200088522000877
:100040006127000861270008612700086127000870
:100050006127000861270008612700086127000860
:100060006127000861270008612700086127000850
:100070006127000861270008612700086127000840
:100080006127000861270008612700086127000830
:100090006127000861270008612700086127000820
:1000A0006127000861270008612700086127000810
:1000B0006127000861270008612700086127000800
:1000C00061270008612700086127000861270008F0
:1000D00061270008612700086127000861270008E0
:1000E00061270008612700086127000861270008D0
:1000F00061270008612700086127000861270008C0
:1001000061270008612700086127000861270008AF
:1001100061270008612700086127000841080008DE
:10012000612700086127000861270008612700088F
:10013000612700086127000861270008612700087F
:10014000612700086127000861270008612700086F
:10015000612700086127000861270008612700085F
:10016000612700086127000861270008612700084F
:1001700061270008612700086127000800000000CF
:08018000612700086127000857
:100190000348044B834202D0034B03B11847704716
:1001A0001000002010000020000000000548064B51
:1001B0001B1AD90F01EBA301491002D0034B03B165
:1001C00018477047100000201000002000000000B9
:1001D00010B5064C237843B9FFF7DAFF044B13B18F
:1001E0000448AFF300800123237010BD10000020ED
:1001F000000000006427000808B5044B1BB1044947
:100200000448AFF30080BDE80840CFE700000000DD
:10021000140000206427000870B50F4B0F4DAB424F
:10022000A3EB050607D0B610002455F8043B0134B3
:100230009847A642F9D802F095FA094D094B5E1B82
:10024000AB424FEAA60606D0002455F8043B013421
:100250009847A642F9D870BDD0270008D0270008DB
:10026000D0270008D4270008830730B547D0541E94
:10027000002A3ED0CAB2034601E0013C39D303F85C
:10028000012B9D07F9D1032C2CD9CDB205EB052507
:100290000F2C05EB054535D9A4F1100222F00F0C07
:1002A00003F1100EE6444FEA121C1A46C2E900554B
:1002B000C2E9025510327245F8D10CF1010214F076
:1002C0000C0F03EB021204F00F0C13D0ACF104037B
:1002D00023F003030433134442F8045B9342FBD13D
:1002E0000CF003042CB1C9B21C4403F8011BA34257
:1002F000FBD130BD64461346002CF4D1F9E7034628
:100300001446C0E71A46A446E0E700BF53B94AB90D
:10031000002908BF00281CBF4FF0FF314FF0FF300D
:1003200000F06AB9ADF1080C6DE904CE00F006F8F2
:10033000DDF804E0DDE9022304B070472DE9F04761
:10034000089D0E4604460F46002B4AD194468C4524
:10035000B2FA82F260D942B1C2F12003974020FA8A
:1003600003F30CFA02FC1F4394404FEA1C4E1FFAA1
:100370008CF6B7FBFEF1230C0EFB117743EA074323
:1003800001FB06F098420AD91CEB030301F1FF3789
:1003900080F01581984240F21281023963441B1AA1
:1003A000A4B2B3FBFEF00EFB103344EA034400FB9F
:1003B00006F6A6420AD91CEB040400F1FF3380F0D4
:1003C0000081A64240F2FD806444023840EA0140C8
:1003D000A41B00211DB1D4400023C5E90043BDE8A2
:1003E000F0878B4205D90DB1C5E90001002108460F
:1003F000F5E7B3FA83F1002946D1B34202D3824232
:1004000000F2F580841A66EB030201201746002DE6
:10041000E5D0C5E90047E2E7002A40F09380A1EB70
:100420000C034FEA1C471FFA8CFE0121B3FBF7F6C1
:1004300007FB1630230C43EA00430EFB06F09842FC
:1004400008D91CEB030306F1FF3802D2984200F2F0
:10045000D08046461B1AA4B2B3FBF7F007FB10335B
:1004600044EA03440EFB00FEA64508D91CEB040435
:1004700000F1FF3302D2A64500F2B6801846A4EB85
:100480000E0440EA0640A5E7C1F120078B4022FA9E
:1004900007FC4CEA030C06FA01FE20FA07F426FAE0
:1004A00007F344EA0E0400FA01F84FEA1C404FEA51
:1004B0001449B3FBF0FE1FFA8CF600FB1E3349EA29
:1004C00003430EFB06F9994502FA01F20BD91CEB26
:1004D00003030EF1FF3A80F08580994540F2828057
:1004E000AEF1020E6344A3EB0909A4B2B9FBF0F329
:1004F00000FB139944EA094403FB06F6A64208D917
:100500001CEB040403F1FF3068D2A64266D9023B1B
:10051000644443EA0E40A41BA0FB02E6B4427346C7
:10052000B14652D34FD05DB1B8EB030264EB09047E
:1005300004FA07F722FA01F31F43CC40C5E900741F
:1005400000214CE7C2F1200120FA01F30CFA02FC71
:1005500026FA01F1964033434FEA1C471FFA8CFEFE
:10056000B1FBF7F007FB1016190C41EA064100FB3E
:100570000EF68E4204FA02F408D91CEB010100F1D8
:10058000FF382DD28E422BD902386144891B9BB291
:10059000B1FBF7F607FB161143EA014306FB0EF128
:1005A000994208D91CEB030306F1FF3814D2994293
:1005B00012D9023E63445B1A46EA004136E73946E7
:1005C000EDE6184602E7F045ADD2BEEB020366EB5E
:1005D0000C060138B146A6E74646ECE7034698E725
:1005E0004046D3E7D6467EE76444023847E70846EC
:1005F0000DE7023E63442DE7704700BF82B0002341
:100600000193064B1A6B42F001021A631B6B03F055
:1006100001030193019B02B0704700BF0038024004
:1006200008B5012001F026FCFBE70000104B1B7809
:10063000002BFBD010B50E4C002323704FF0FF337E
:1006400006220C490C4801F0FCFF012020704FF0FD
:10065000E0234FF08052C3F8042DBFF34F8FBFF358
:100660006F8F01F007FC024B1B78002BFBD0E2E7F9
:10067000000000207C27000838000020104B1B7869
:10068000002BFBD010B50E4C002323704FF0FF332E
:1006900008220C490C4801F0D4FF012020704FF0D3
:1006A000E0234FF08052C3F8042DBFF34F8FBFF308
:1006B0006F8F01F0DFFB024B1B78002BFBD0E2E7D2
:1006C00000000020842700083800002008B50268D8
:1006D000034B9A4200D008BD00F0B2FFFBE700BF19
:1006E0000014004072B6FEE708B50A480A4B0360E2
:1006F0004FF4E133436000238360C36003610C2245
:1007000042618361C36101F06CFF00B908BDFFF76E
:10071000E9FF00BF380000200044004000B595B05C
:100720003022002108A8FFF79FFD002303930493C4
:100730000593069307930193184A116C41F0805179
:100740001164126C02F080520192019A0293144AD1
:10075000116841F480411160126802F480420292F3
:10076000029A0222089201220B9210220C920E93FE
:1007700008A800F0A9FA68B90F2303930021049197
:1007800005910691079103A800F0EEFC20B915B081
:100790005DF804FBFFF7A6FFFFF7A4FF0038024057
:1007A0000070004000B583B000F030FFFFF7B6FFE7
:1007B000FFF724FFFFF798FF0F4B019301240094EC
:1007C00080231A460D490E4801F065F90D4B01933F
:1007D000009480231A460C490C4801F05CF90C4B3C
:1007E0000193009480231A460A490B4801F053F9FB
:1007F00001F084F9FEE700BF3400002090270008D4
:100800002106000830000020982700082D06000867
:100810002C000020A02700087D060008034B036081
:10082000034B0B6080231360704700BF80020020E1
:1008300080000020FEE7FEE7FEE7FEE7FEE77047E8
:1008400008B5024800F0FAF808BD00BFD402002045
:1008500000B583B0002200920D4B596C41F48041E9
:100860005964596C01F48041009100990192196C0E
:1008700041F0805119641B6C03F080530193019B7C
:100880000F216FF0010000F0ADFE03B05DF804FB36
:100890000038024000B589B0002303930493059308
:1008A000069307930268154B9A4202D009B05DF88F
:1008B00004FB0021019103F5FA331A6C42F4003273
:1008C0001A641A6C02F400320192019A02911A6BB6
:1008D00042F001021A631B6B03F001030293029BB7
:1008E0000C23039302230493032306930723079304
:1008F00003A9034800F02CFDD8E700BF00440040E6
:100900000000024030B589B0044600230193214B1A
:100910001A6C42F020021A641B6C03F0200301934E
:10092000019B02A903A800F0F5FC069BCBB900F0DF
:10093000D1FC0346184AA2FB03239B0C013B17483A
:10094000174A026040F2E732C2604360002303614D
:100950008360836100F08AF9054630B1284609B00A
:1009600030BD00F0B7FC4300E4E70C4800F01EF88F
:1009700005460028F2D1372000F044FE0F2C01D9A3
:100980000125EBE700222146372000F02BFE054B26
:100990001C60E3E70038024083DE1B43D4020020E2
:1009A00000140040040000207047000090F83D3023
:1009B000DBB2012B37D1022380F83D300268D368C7
:1009C00043F00103D3600368194A934220D0B3F186
:1009D000804F1DD0A2F57C42934219D002F580626F
:1009E000934215D002F58062934211D002F578420D
:1009F00093420DD002F57052934209D0A2F5943281
:100A0000934205D01A6842F001021A600020704734
:100A10009A6802F00702062A07D01A6842F001021B
:100A20001A6000207047012070470020704700BF07
:100A300000000140704770477047704770B504462A
:100A40000368DE681D6915F0020F10D016F0020F62
:100A50000DD06FF002021A610123037703689B69CE
:100A600013F0030F5ED0FFF7E6FF0023237715F0A6
:100A7000040F12D016F0040F0FD023686FF0040299
:100A80001A610223237723689B6913F4407F4FD0B8
:100A90002046FFF7D0FF0023237715F0080F12D070
:100AA00016F0080F0FD023686FF008021A610423B4
:100AB00023772368DB6913F0030F40D02046FFF74C
:100AC000BAFF0023237715F0100F12D016F0100F85
:100AD0000FD023686FF010021A6108232377236870
:100AE000DB6913F4407F31D02046FFF7A4FF0023D9
:100AF000237715F0010F02D016F0010F2DD115F05C
:100B0000800F02D016F0800F2FD115F0400F02D0C9
:100B100016F0400F31D115F0200F02D016F0200F43
:100B200033D170BDFFF786FF2046FFF785FF9CE7B6
:100B30002046FFF77FFF2046FFF77EFFABE720460A
:100B4000FFF778FF2046FFF777FFBAE72046FFF769
:100B500071FF2046FFF770FFC9E723686FF00102BD
:100B60001A612046FFF7B2FDC9E723686FF08002E3
:100B70001A61204600F0A7F8C7E723686FF040022B
:100B80001A612046FFF759FFC5E723686FF020027E
:100B90001A61204600F096F8C3E700000368324A65
:100BA000904212D0B0F1804F0FD0A2F57C4290421B
:100BB0000BD002F58062904207D002F5806290422D
:100BC00003D002F57842904203D123F070034A68C3
:100BD0001343254A90422AD0B0F1804F27D0A2F586
:100BE0007C42904223D002F5806290421FD002F5F1
:100BF000806290421BD002F57842904217D002F5F5
:100C00007052904213D002F5806290420FD002F5EC
:100C1000806290420BD0A2F59832904207D002F544
:100C20008062904203D002F58062904203D123F4A7
:100C30004073CA68134323F080034A6913438A68E8
:100C4000C2620A688262084A904203D002F580625A
:100C5000904201D10A690263026842F00402026014
:100C600001224261036070470000014040B310B5AB
:100C7000044690F83D30F3B1022384F83D3021461C
:100C800051F8040BFFF78AFF012384F8463084F8FB
:100C90003E3084F83F3084F8403084F8413084F8A6
:100CA000423084F8433084F8443084F8453084F886
:100CB0003D30002010BD80F83C30FFF775FEDBE7CB
:100CC0000120704770477047002800F0E08170B540
:100CD00082B00446036813F0010F3BD09F4B9B6822
:100CE00003F00C03042B2CD09C4B9B6803F00C03EB
:100CF000082B21D06368B3F5803F4FD0B3F5A02F08
:100D000052D0964B1A6822F480321A601A6822F484
:100D100080221A606368002B50D000F09DFC0546CD
:100D20008E4B1B6813F4003F14D100F095FC401B60
:100D30006428F5D90320B1E1884B5B6813F4800F78
:100D4000D8D0864B1B6813F4003F03D06368002B98
:100D500000F09F81236813F0020F54D07F4B9B68F3
:100D600013F00C0F3ED07D4B9B6803F00C03082B57
:100D700033D0E368002B68D0794B01221A6000F071
:100D80006BFC0546754B1B6813F0020F54D100F045
:100D900063FC401B0228F5D903207FE16F4A1368EA
:100DA00043F480331360B5E76C4B1A6842F4802239
:100DB0001A601A6842F480321A60ABE700F04CFC0B
:100DC0000546664B1B6813F4003FC3D000F044FC9B
:100DD000401B6428F5D9032060E1604B5B6813F485
:100DE000800FC6D15D4B1B6813F0020F03D0E36880
:100DF000012B40F05081594A136823F0F803216910
:100E000043EAC1031360236813F0080F42D06369FB
:100E10006BB3534B0122C3F8802E00F01DFC054636
:100E20004E4B5B6F13F0020F34D100F015FC401BEA
:100E30000228F5D9032031E1484A136823F0F8036A
:100E4000216943EAC1031360DDE7454B00221A60C4
:100E500000F002FC0546414B1B6813F0020FD2D094
:100E600000F0FAFB401B0228F5D9032016E13C4BA9
:100E70000022C3F8802E00F0EFFB0546374B5B6F76
:100E800013F0020F06D000F0E7FB401B0228F5D953
:100E9000032003E1236813F0040F77D02F4B1B6C62
:100EA00013F0805F33D1002301932C4B1A6C42F076
:100EB00080521A641B6C03F080530193019B01253F
:100EC000284B1B6813F4807F23D0A368012B34D0F8
:100ED000052B38D0214B1A6F22F001021A671A6FC6
:100EE00022F004021A67A368002B3DD000F0B4FB87
:100EF00006461A4B1B6F13F0020F46D100F0ACFBF5
:100F0000801B41F288339842F3D90320C6E00025C4
:100F1000D6E7144A136843F48073136000F09CFB17
:100F20000646104B1B6813F4807FCED100F094FB73
:100F3000801B0228F5D90320B0E0084A136F43F064
:100F400001031367CFE7054B1A6F42F004021A67DB
:100F50001A6F42F001021A67C5E700BF003802406D
:100F6000000047420070004000F076FB0646524BFE
:100F70001B6F13F0020F08D000F06EFB801B41F2D4
:100F800088339842F3D9032088E0EDB9A369002B98
:100F900000F08380484A926802F00C02082A51D07F
:100FA000022B17D0454B00221A6600F055FB044671
:100FB000414B1B6813F0007F42D000F04DFB001B3B
:100FC0000228F5D9032069E03B4A136C23F08053D3
:100FD0001364DBE7394B00221A6600F03DFB05463F
:100FE000354B1B6813F0007F06D000F035FB401B2B
:100FF0000228F5D9032051E0E369226A1343626AAB
:1010000043EA8213A26A5208013A43EA0243E26ABF
:1010100043EA0263284A5360284B01221A6600F013
:101020001BFB0446244B1B6813F0007F06D100F025
:1010300013FB001B0228F5D903202FE000202DE030
:1010400000202BE0012B2BD01B4B5B6803F48001AD
:10105000E269914226D103F03F02216A8A4223D1FC
:10106000616A47F6C0721A40B2EB811F1ED103F4C9
:101070004031A26A5208013AB1EB024F18D103F095
:101080007063E26AB3EB026F14D1002006E0012026
:101090007047012002E0012000E0002002B070BD96
:1010A0000120FBE70120F9E70120F7E70120F5E740
:1010B0000120F3E70120F1E7003802400000474239
:1010C00008B5264B9B6803F00C03042B41D0082B7A
:1010D00041D1224B5A6802F03F025B6813F4800F43
:1010E00012D01E4B5968C1F388111D480023A1FB83
:1010F0000001FFF70BF9194B5B68C3F301430133A0
:101100005B00B0FBF3F008BD144B5868C0F38810C7
:101110004FEA401CBCEB000C6EEB0E0E4FEA8E1338
:1011200043EA9C634FEA8C11B1EB0C0163EB0E03B5
:10113000DB0043EA5173C90011EB000C43F10003DB
:10114000990200234FEA8C2041EA9C51FFF7DEF818
:10115000D1E70348D7E70348D5E700BF003802408E
:1011600040787D010024F400002800F09B8070B5D9
:101170000D4604464F4B1B6803F007038B4208D211
:10118000CBB24C4A1370136803F007038B4240F054
:101190008B80236813F0020F17D013F0040F04D0D4
:1011A000454A936843F4E0539360236813F0080FB3
:1011B00004D0414A936843F4604393603E4A936885
:1011C00023F0F003A1680B439360236813F0010F31
:1011D00032D06368012B21D09A1E012A25D9364AC4
:1011E000126812F0020F61D033498A6822F00302BC
:1011F00013438B6000F030FA06462F4B9B6803F0D8
:101200000C036268B3EB820F16D000F025FA801B46
:1012100041F288339842F0D9032042E0264A12680E
:1012200012F4003FE0D101203BE0234A126812F0A3
:10123000007FD9D1012034E01E4B1B6803F0070367
:10124000AB4207D9EAB21B4B1A701B6803F00703C5
:10125000AB422DD1236813F0040F06D0164A9368D1
:1012600023F4E053E1680B439360236813F0080F05
:1012700007D0114A936823F46043216943EAC1030C
:101280009360FFF71DFF0C4B9B68C3F303130B4ADE
:10129000D35CD8400A4B18600A4B1868FFF732FB42
:1012A000002070BD012070470120FAE70120F8E717
:1012B0000120F6E7003C024000380240B827000851
:1012C0000800002004000020014B1868704700BF90
:1012D0000800002008B5FFF7F7FF044B9B68C3F335
:1012E0008223034AD35CD84008BD00BF00380240C7
:1012F000B027000808B5FFF7E7FF044B9B68C3F36E
:101300004233034AD35CD84008BD00BF00380240D6
:10131000B02700080F2303600B4B9A6802F003020A
:1013200042609A6802F0F00282609A6802F4E05229
:10133000C2609B68DB0803F4E0530361034B1B6846
:1013400003F007030B60704700380240003C024086
:1013500000230F2B00F2E98070B582B065E085684C
:101360004FEA430E032404FA0EF425EA0405CC6880
:1013700004FA0EF42C438460446824EA02044A68A8
:10138000C2F300129A40224342605CE0DC08083459
:1013900050F8242003F00705AD004FF00F0E0EFAB1
:1013A00005FE22EA0E0E0A69AA4042EA0E0240F841
:1013B00024205CE0072200E0002202FA0EF22A4319
:1013C00002345A4D45F82420594A94686FEA0C02B9
:1013D00024EA0C054E6816F4801F01D04CEA04057F
:1013E000534CA560E46802EA04054E6816F4001F39
:1013F00001D04CEA04054E4CE560646802EA04053D
:101400004E6816F4003F01D04CEA0405484C656074
:10141000246822404D6815F4803F01D04CEA040254
:10142000434C226001330F2B7DD801229A400C6877
:1014300004EA020C32EA0404F4D14C6804F0030418
:10144000013C012C8BD94A6802F00302032A09D01F
:10145000C4685D000322AA4024EA02048A68AA4004
:101460002243C2604A6802F00302022A8ED0046856
:101470004FEA430E032202FA0EF224EA02044A68FB
:1014800002F0030202FA0EF2224302604A6812F4EA
:10149000403FC7D000220192264A546C44F4804455
:1014A0005464526C02F480420192019A9C08A51C7B
:1014B0001E4A52F8255003F0030E4FEA8E0E0F22FB
:1014C00002FA0EF225EA02051B4A90423FF474AF7D
:1014D00002F5806290421AD002F58062904218D0E4
:1014E00002F58062904216D002F58062904214D0DC
:1014F00002F58062904212D002F58062904210D0D4
:1015000002F5806290423FF455AF082255E7012270
:1015100053E7022251E703224FE704224DE7052259
:101520004BE7062249E702B070BD70470038014022
:10153000003C01400038024000000240002807DB68
:1015400000F01F02400901239340024A42F8203074
:10155000704700BF00E100E0002808DB0901C9B2C4
:1015600000F1604000F5614080F80013704700F022
:101570000F000901C9B2014B1954704714ED00E086
:1015800000B500F00700C0F1070CBCF1040F28BF44
:101590004FF0040C031D062B0FD9C31E4FF0FF3E66
:1015A0000EFA0CF021EA000199400EFA03FE22EA3D
:1015B0000E0241EA02005DF804FB0023EEE70000A2
:1015C000074AD36823F4E0631B041B0C000200F4F9
:1015D000E060034343F0BF6343F40033D3607047DC
:1015E00000ED00E010B50446054BD868C0F30220BA
:1015F000FFF7C6FF01462046FFF7AEFF10BD00BF54
:1016000000ED00E008B5FFF799FF08BD08B50B4BEA
:101610001A6842F400721A601A6842F480621A6012
:101620001A6842F480721A600320FFF7C9FF0F2086
:10163000FFF768F9FFF70CF9002008BD003C0240F5
:10164000034A1168034B1B780B441360704700BFBB
:101650001C03002001000020014B1868704700BFE8
:101660001C030020034AD2F8883043F47003C2F808
:101670008830704700ED00E000F1080343604FF050
:10168000FF328260C3600361002303607047002360
:101690000361704743684B609A688A605160996043
:1016A0000861036801330360704730B40D68B5F119
:1016B000FF3F11D000F108031C465B681A68AA427C
:1016C000FAD963684B6099608C6061600861036857
:1016D0000133036030BC70470469F2E70369416875
:1016E00082688A60416851605A68824206D000224E
:1016F00002611A68013A1A601868704782685A6075
:10170000F5E70000084B1B681B6823B9074B4FF037
:10171000FF321A607047044B1B68DB68DB685A684D
:10172000024B1A60704700BF90030020280300207E
:101730002DE9F04707469846089DDDF824900A9C5D
:10174000266B02F18042013A06EB820626F007067C
:10175000C1B308464FF0000CBCF10F0F09D810F8C8
:101760000C2004EB0C0383F8342012B10CF1010CB3
:10177000F2E7002384F84330062D00D90625E56200
:1017800065644FF0000AC4F848A0201DFFF77FFFF2
:1017900004F11800FFF77BFF2461C5F10705A5617F
:1017A0006462C4F84CA084F850A0424639463046E2
:1017B00000F0CAFC2060B9F1000F01D0C9F8004068
:1017C000BDE8F087002384F83430D5E738B500242D
:1017D00007E004EB840293000E481844FFF74CFF27
:1017E0000134062CF5D90C4D2846FFF745FF0B4C6C
:1017F0002046FFF741FF0A48FFF73EFF0948FFF781
:101800003BFF0948FFF738FF084B1D60084B1C6081
:1018100038BD00BFBC030020A803002094030020B3
:1018200078030020640300204C0300209003002074
:101830008C03002010B5044600F0B4FC214A136864
:1018400001331360204B1B685BB1204B1B686BB9E5
:101850001D4B1B68DA6AE36A9A4207D81A4B1C6070
:1018600004E0194B1C601368012B28D0184A136838
:1018700001331360E06A01238340164A11680B4369
:10188000136000EB8000211D134B03EB8000FFF77A
:1018900001FF00F0A9FC0D4B1B687BB10A4B1B68D4
:1018A000DA6AE36A9A4209D24FF0E0234FF080529D
:1018B000C3F8042DBFF34F8FBFF36F8F10BDFFF739
:1018C00085FFD3E748030020480400203C030020A4
:1018D0002C03002040030020BC03002010B5044668
:1018E00090F8513063B1012B11D0022B0ED04FF084
:1018F000500383F31188BFF36F8FBFF34F8FFEE761
:10190000006B00F0A5FB204600F0A2FB10BD00F02C
:101910009FFBFBE70F4B1B68D3B110B500F042FCF7
:101920000D4BDB68DC68201DFFF7D8FE0B4A1368FF
:10193000013B1360074A1368013B136000F054FC3D
:101940002046FFF7CBFF034B1B68002BE6D110BDF1
:10195000704700BF6003002064030020480300209C
:1019600008B5FFF7D7FF074B1B68012BF9D94FF0DC
:10197000E0234FF08052C3F8042DBFF34F8FBFF325
:101980006F8FEEE7BC03002070B504460D461D4B7B
:101990001E681D4B18680430FFF7A0FE48B91A4BAB
:1019A0001B68DB6A01229A4018490B6823EA02038C
:1019B0000B60B4F1FF3F0DD03444134B1B685C60E7
:1019C000A64210D9124B18680F4B19680431FFF763
:1019D0006CFE70BD002DEFD00B4B196804310D4823
:1019E000FFF758FEF5E70C4B1868074B19680431F0
:1019F000FFF75BFE094B1B68A342EAD9074B1C604B
:101A0000E7E700BF44030020480400204003002013
:101A10008C0300204C0300209003002028030020AA
:101A200030B587B00B9C7CB10C9DB5B154250495A5
:101A3000049D542D1AD04FF0500383F31188BFF347
:101A40006F8FBFF34F8FFEE74FF0500383F3118882
:101A5000BFF36F8FBFF34F8FFEE74FF0500383F359
:101A60001188BFF36F8FBFF34F8FFEE7049D0C9D6E
:101A70002C63022485F8514000240394029505ACA0
:101A800001940A9C0094FFF753FE0C98FFF7D2FED6
:101A9000059807B030BD2DE9F04385B0074688466C
:101AA00014461E46900000F051FA08B381465420B7
:101AB00000F04CFA0546A8B1C0F83090002380F839
:101AC0005130039302900D9B01930C9B009333467E
:101AD000224641463846FFF72BFE2846FFF7AAFE6E
:101AE000012007E0484600F0B3FA4FF0FF3001E074
:101AF0004FF0FF3005B0BDE8F083000010B588B0AE
:101B000000240594069407AA06A905A8FEF786FEF8
:101B1000059B0293069B019300942346079A0E4966
:101B20000E48FFF77DFF0E4B186090B14FF0500349
:101B300083F31188BFF36F8FBFF34F8F094B4FF0C3
:101B4000FF321A60084B01221A60084B1C6000F03B
:101B5000C3FB08B010BD00BFA8270008611900082A
:101B600024030020280300203C030020440300201D
:101B7000024A136801331360704700BF200300203E
:101B8000F8B53A4B1B68002B69D1394B1D680135FC
:101B90001D60C5B9374B1B681B6843B14FF050033C
:101BA00083F31188BFF36F8FBFF34F8FFEE7314A86
:101BB0001168314B186810601960304A136801339E
:101BC0001360FFF79FFD2E4B1B68AB423DD90027EA
:101BD0002C4B1B68DB6A03EB83039A002A4B9B5850
:101BE000012B00D90127294B1B68002B3CD0012772
:101BF0003AE001271F4B1B681B6843B31D4B1B6852
:101C0000DB68DC6863689D4226D3261D3046FFF7FB
:101C100065FDA36A1BB104F11800FFF75FFDE36ADD
:101C200001229A401A49086802430A6003EB8303C1
:101C30009A00314614481044FFF72CFDE26A114B1C
:101C40001B68DB6A9A42D4D2D4E70027D2E70C4B58
:101C50004FF0FF321A60BBE7094A1360B8E70D4A3C
:101C600013680133136000273846F8BD20030020B5
:101C700044030020900300208C0300203003002048
:101C80002803002048040020BC0300203403002067
:101C9000400300203803002038B5354B1B6843B99A
:101CA0004FF0500383F31188BFF36F8FBFF34F8F53
:101CB000FEE700F077FA2E4B1A68013A1A601B68AB
:101CC000002B4FD12B4B1B680BB900244BE0002499
:101CD000294B1B681BB3284BDB68DC6804F1180038
:101CE000FFF7FCFC251D2846FFF7F8FCE06A0123FE
:101CF0008340224A11680B43136000EB80002946A1
:101D00001F4B03EB8000FFF7C5FCE26A1D4B1B680D
:101D1000DB6A9A42DCD31C4B01221A60D8E70CB173
:101D2000FFF7F0FC194B1C6884B9174B1C68D4B141
:101D30004FF0E0234FF08052C3F8042DBFF34F8FD4
:101D4000BFF36F8F01240EE0013C07D0FFF718FFAF
:101D50000028F9D00C4B01221A60F5E70B4B00224A
:101D60001A60E2E7002400F03FFA204638BD00BFC9
:101D700020030020480300207803002040030020B7
:101D8000BC03002048040020340300203803002056
:101D900010B5A8B10446104B1B6843B14FF0500377
:101DA00083F31188BFF36F8FBFF34F8FFEE7FFF709
:101DB000DFFE00212046FFF7E7FDFFF76DFF48B982
:101DC0004FF0E0234FF08052C3F8042DBFF34F8F44
:101DD000BFF36F8F10BD00BF20030020204B1B6896
:101DE0001BB1204B01221A6070471E4B00221A6063
:101DF0001D4B1B68B3FA83F3DBB2C3F11F0303EB84
:101E000083018A0019498A5842B94FF0500383F37D
:101E10001188BFF36F8FBFF34F8FFEE7134803EBBB
:101E200083018A00024451684968516003EB830CC6
:101E30004FEA8C0208320244914209D003EB83033B
:101E40009A000A4B13445B68DA68094B1A607047C2
:101E5000486862469100054A0A445060EEE700BFB8
:101E6000200300203403002040030020BC03002096
:101E70004804002008B500B90120FFF789FF0020C1
:101E800008BD0000124A12F0070F1ED0D11D21F02C
:101E90000701C1F5705313440A460E480260002141
:101EA00041601344083B23F007030B48036059606B
:101EB0001960991A51601360084B1960084B19603A
:101EC000084B4FF000421A6070474FF47053E4E73C
:101ED0006C040020640400206004002058040020EA
:101EE0005C0400204C040020164B1A461B688342F9
:101EF000FBD3516802EB010C844509D0416800EB2B
:101F0000010C634509D00360904219D010607047FE
:101F10004068014451601046F0E710B40A4C246850
:101F2000A3420BD05B681944416013681B680360CF
:101F3000904200D010605DF8044B70470460F7E7F2
:101F4000704700BF640400206004002038B50446D8
:101F5000FFF70EFE384B1B68B3B1384B1B681C42B1
:101F600050D1002C50D004F1080214F0070F02D019
:101F700022F007020832002A55D0314B1B689342E9
:101F800053D330490C6804E0FFF77CFFE5E72146B6
:101F90001C466368934202D22368002BF7D1264B7C
:101FA0001B68A34243D00D68083523680B60636843
:101FB0009B1A102B10D9A01810F0070F08D04FF063
:101FC000500383F31188BFF36F8FBFF34F8FFEE78A
:101FD00043606260FFF788FF626819490B689B1ACB
:101FE0000B60194909688B4201D217490B60134BEA
:101FF0001B681343636000232360144A1368013392
:10200000136002E0002500E00025FFF745FE15F013
:10201000070F0ED04FF0500383F31188BFF36F8F7B
:10202000BFF34F8FFEE70025EFE70025EDE7002522
:10203000EBE7284638BD00BF600400204C040020B8
:102040005C04002064040020580400205404002094
:10205000002834D038B50446A0F1080550F8043CF7
:10206000174A1268134208D14FF0500383F31188C6
:10207000BFF36F8FBFF34F8FFEE750F8081C41B1DD
:102080004FF0500383F31188BFF36F8FBFF34F8F6F
:10209000FEE723EA020340F8043CFFF769FD54F829
:1020A000041C084A13680B4413602846FFF71CFF02
:1020B000054A136801331360FFF7EEFD38BD704722
:1020C0004C0400205C0400205004002082B0002357
:1020D00001930D4B1B68B3F1FF3F08D04FF0500345
:1020E00083F31188BFF36F8FBFF34F8FFEE74FF07D
:1020F000500383F31188BFF36F8FBFF34F8F019BA2
:10210000002BFCD002B070470C000020084800688B
:10211000006880F308884FF0000080F3148862B6EE
:1021200061B6BFF34F8FBFF36F8F00DF00BF0000BA
:1021300008ED00E0DFF80C00016841F47001016077
:102140007047000088ED00E04FF0807340F8043CD9
:1021500021F0010140F8081C054B40F80C3C40F808
:10216000202C6FF0020340F8243C4438704700BF35
:10217000CD2000080000000000000000000000006A
:10218000074B19680868B0E8F04F80F30988BFF37F
:102190006F8F4FF0000080F311887047AFF300801D
:1021A000480400204FF0500383F31188BFF36F8F72
:1021B000BFF34F8F0B4A136801331360012B00D01C
:1021C00070474FF0E023D3F8043D13F0FF0FF7D032
:1021D0004FF0500383F31188BFF36F8FBFF34F8F1E
:1021E000FEE700BF0C000020094B1B6843B94FF00D
:1021F000500383F31188BFF36F8FBFF34F8FFEE758
:10220000013B034A13600BB983F31188704700BF89
:102210000C00002000000000000000000000000092
:10222000EFF30980BFF36F8F154B1A681EF0100F84
:1022300008BF20ED108A20E9F04F10602DE9090059
:102240004FF0500080F31188BFF34F8FBFF36F8FB3
:10225000FFF7C4FD4FF0000080F3118809BC196836
:102260000868B0E8F04F1EF0100F08BFB0EC108AFD
:1022700080F30988BFF36F8F704700BFAFF3008012
:102280004804002008B54FF0500383F31188BFF3D2
:102290006F8FBFF34F8FFFF773FC28B14FF0E02330
:1022A0004FF08052C3F8042D002383F3118808BD3A
:1022B0004FF0E022002313619361054B1B68054931
:1022C000A1FB03139B09013B536107231361704773
:1022D00008000020D34D62104FF0E023D3F8002D0A
:1022E0003D4B9A421CD04FF0E023D3F8002D3B4BDE
:1022F0009A421ED030B583B0394B1A78D2B20192CF
:10230000FF221A701B78DBB28DF803309DF8033082
:1023100003F05003334A1370334B07221A601BE05B
:102320004FF0500383F31188BFF36F8FBFF34F8FCC
:10233000FEE74FF0500383F31188BFF36F8FBFF3B5
:102340004F8FFEE7284A1368013B13609DF8033066
:102350005B00DBB28DF803309DF8033013F0800F83
:10236000F0D1214B1B68032B08D04FF0500383F3AF
:102370001188BFF36F8FBFF34F8FFEE71B021A4A1E
:10238000136003F4E0631360019BDBB2144A137023
:102390004FF0E024D4F8203D43F47003C4F8203D0E
:1023A000D4F8203D43F07043C4F8203DFFF780FF90
:1023B00000250E4B1D60FFF7BDFED4F8343F43F0FF
:1023C0004043C4F8343FFFF7A1FEFFF707FDFFF7D6
:1023D0007DFE284603B030BD71C20F4170C20F416F
:1023E00000E400E0704000206C4000200C00002061
:1023F000026802F10C0353E8003F23F490730C329F
:1024000042E800310029F3D1026802F1140353E8D5
:10241000003F23F00103143242E800310029F3D1D8
:10242000036B012B05D0202380F842300023036387
:102430007047026802F10C0353E8003F23F01003D9
:102440000C3242E800310029F3D1ECE710B5044624
:102450000268136923F44053C1680B431361836816
:1024600002691A4343691A43C3691A430168CB6876
:1024700023F4164323F00C031343CB600268536923
:1024800023F4407381690B4353610368314A9342DB
:1024900006D002F58062934202D0FEF71BFF01E0F6
:1024A000FEF728FFE369B3F5004F29D00021031898
:1024B00049411B1841F10001C90041EA5371DB0099
:1024C000181863684FEA83024FEA937341F10001E1
:1024D000FDF71CFF204AA2FB00314909642303FBDE
:1024E00011031B013233A2FB03235B0903F0F0024B
:1024F00002EB011203F00F03216813448B6010BD3F
:102500000023021843EB0301121841F10001C90036
:1025100041EA5271D200101841F10001626892182C
:102520005B41FDF7F3FE0C4AA2FB0031490964232D
:1025300003FB1103DB003233A2FB03235B095A00C8
:1025400002F4F87202EB011203F00703216813444E
:102550008B60D4E7001001401F85EB512DE9F0435B
:1025600083B005460E4617469946DDF828802B684D
:102570001C6836EA04040CBF01240024BC4228D1A4
:10258000B8F1FF3FF3D0FFF767F8A0EB0900404533
:1025900023D8B8F1000F22D02B68DA6812F0040FAC
:1025A000E5D0802EE3D0402EE1D01A6812F0080F5B
:1025B000DDD0002401941A6801925B680193019BAD
:1025C0002846FFF715FF08236B6485F8404001207B
:1025D00000E0002003B0BDE8F0830320FAE7032009
:1025E000F8E760B310B5044690F8413013B32423E4
:1025F00084F841302268D36823F40053D360204626
:10260000FFF724FF2268136923F4904313612268C3
:10261000536923F02A0353612268D36843F40053BB
:10262000D36000206064202384F8413084F8423075
:10263000606310BD80F84030FEF72CF9D7E7012029
:1026400070472DE9F04182B01E4690F84130DBB270
:10265000202B56D104460D469046002955D00AB984
:1026600001204FE000234364212380F84130FEF72E
:10267000F3FF0746A4F82480A4F82680A368B3F5E6
:10268000805F02D04FF0000814E023692BB34FF0B5
:1026900000080FE0202384F84130032032E038F8AE
:1026A000023B2268C3F308035360E28C92B2013A02
:1026B00092B2E284E38C9BB293B100963B46002237
:1026C00080212046FFF74AFF0028E3D1002DE6D005
:1026D00015F8012B23685A60E7E7A8460025E9E7CB
:1026E00000963B46002240212046FFF737FF18B9ED
:1026F000202384F8413005E0202384F84130032072
:1027000000E0022002B0BDE8F0810120FAE70000FD
:10271000DFF834D0FEF7A6FF0C480D490D4A002320
:1027200002E0D458C4500433C4188C42F9D30A4A86
:102730000A4C002301E013600432A242FBD3FDF7F0
:102740006BFDFEF72FF8704700000220000000200C
:1027500010000020D827000810000020744000203E
:10276000FEE70000F8B500BFF8BC08BC9E46704705
:0C277000F8B500BFF8BC08BC9E467047DE
:10277C00746573740D0A000064656E656D650D0AF1
:10278C000000000064656661756C74007461736BA5
:10279C00310000007461736B3200000049444C45F9
:1027AC000000000000000000010203040000000013
:0C27BC00000000000102030406070809E9
:0827C80074DBFF7F010000003B
:0427D000F901000803
:0427D400D101000827
:1027D80001010000100000000024F400AAAAAAAA1F
:0400000508002711B7
:00000001FF
